:020000040000FA
:100000000C9461010C9489010C9489010C94890170
:100010000C9489010C9489010C9489010C94890138
:100020000C9489010C9489010C9489010C94890128
:100030000C9489010C9489010C9489010C94890118
:100040000C9407220C9489010C94D5210C94AF21B7
:100050000C9489010C9489010C9489010C948901F8
:100060000C9451220C94890100407A10F35A00A09C
:10007000724E18090010A5D4E80000E87648170071
:1000800000E40B54020000CA9A3B000000E1F505B1
:10009000000080969800000040420F000000A086FB
:1000A00001000000102700000000E803000000002D
:1000B0006400000000000A000000000001000000D1
:1000C00000002C76D888DC674F0823DFC1DFAE59EB
:1000D000E1B1B796E5E3E453C63AE651997696E87E
:1000E000E6C28426EB898C9B62ED407C6FFCEFBC02
:1000F0009C9F40F2BAA56FA5F490055A2AF75C932D
:100100006B6CF9676DC11BFCE0E40D47FEF520E662
:10011000B500D0ED902E0300943577050080841E45
:10012000080000204E0A000000C80C333333330FA0
:10013000986E12831141EF8D2114893BE65516CF3D
:10014000FEE6DB18D1844B381BF77C1D901DA4BB49
:10015000E424203284725E228100C9F124ECA1E5FE
:100160003D27626C6E6B696E660076657200312E9B
:10017000302E3100682D626561740034350062757F
:1001800066662D696E003235360064657600417210
:100190006475696E6F20556E6F0063707500415411
:1001A0006D6567613332385000636F6E00573531CB
:1001B00030300066772D7479706500544D504C6D69
:1001C0006D7A6D5751656F006275696C6400417599
:1001D0006720203720323032322032333A35353AF8
:1001E000323800000000000000240027002A000030
:1001F0000000002300260029000000000800020182
:1002000000000304070000000000000000010204D9
:100210000810204080010204081020010204081088
:100220002000000000250028002B00040404040422
:100230000404040202020202020303030303038C08
:10024000018C018C018C018C018C018C018C018C46
:10025000018C018C018C018C018C018C018C018C36
:10026000018C018C018C018C018C018C018C018C26
:10027000018C018C018C018C018C018C018C013D65
:100280000B8B01190B8B01F90AD30A8B018B018BA4
:10029000018B018B018B018B018B018B018B018BFE
:1002A000018B018B018B018B018B018B018B018BEE
:1002B000018B018B018B018B018B018B018B010069
:1002C000FC2311241FBECFEFD8E0DEBFCDBF13E06B
:1002D000A0E0B1E0E6EDFAE602C005900D92AA3189
:1002E000B107D9F726E0AAE1B3E001C01D92AE3F05
:1002F000B207E1F711E0C1E6D1E004C02197FE01A9
:100300000E946A34C036D107C9F70E940F250C94A9
:1003100069350C940000089508958CBD9DBD089525
:1003200020E3FC0120833296862F82958F706F70B8
:100330006A3030F4605D6293682F8111F5CF0895C3
:10034000695CF9CFFC01818D928D0895089508951F
:100350000895AF92BF92CF92DF92EF92FF920F93E8
:100360001F93CF93DF936C017B018B01040F151F4B
:10037000EB015E01AE18BF08C017D10759F06991B3
:10038000D601ED91FC910190F081E02DC601099517
:10039000892B79F7C501DF91CF911F910F91FF90C4
:1003A000EF90DF90CF90BF90AF900895FC01538DF8
:1003B000448D252F30E0842F90E0821B930B54173F
:1003C00010F0CF96089501970895FC01918D828DCC
:1003D000981761F0A28DAE0FBF2FB11D5D968C9165
:1003E000928D9F5F9F73928F90E008958FEF9FEFA4
:1003F0000895FC01918D828D981731F0828DE80F60
:10040000F11D858D90E008958FEF9FEF0895FC0119
:10041000918D228D892F90E0805C9F4F821B9109E6
:100420008F73992708958EE694E00E94070221E0D9
:10043000892B09F420E0822F089580E090E0892B39
:1004400029F00E94130281110C9400000895FC0110
:10045000A48DA80FB92FB11DA35ABF4F2C91848D25
:1004600090E001968F739927848FA689B7892C9382
:10047000A089B1898C91837080648C93938D848DD5
:10048000981306C00288F389E02D80818F7D8083D8
:100490000895EF92FF920F931F93CF93DF93EC0198
:1004A00081E0888F9B8D8C8D98131AC0E889F9891B
:1004B000808185FF15C09FB7F894EE89FF8960831E
:1004C000E889F98980818370806480839FBF81E09F
:1004D00090E0DF91CF911F910F91FF90EF900895E1
:1004E000F62E0B8D10E00F5F1F4F0F731127E02EBC
:1004F0008C8D8E110CC00FB607FCFACFE889F989F4
:10050000808185FFF5CFCE010E942702F1CFEB8DD0
:10051000EC0FFD2FF11DE35AFF4FF0829FB7F894C7
:100520000B8FEA89FB8980818062CFCF682F8EE6AE
:1005300094E00C944902CF93DF93EC01888D8823DB
:10054000B9F0AA89BB89E889F9898C9185FD03C036
:10055000808186FD0DC00FB607FCF7CF8C9185FF1B
:10056000F2CF808185FFEDCFCE010E942702E9CF37
:10057000DF91CF910895833081F028F4813099F094
:100580008230A9F008958730A9F08830C9F084300E
:10059000B1F4809180008F7D03C0809180008F77BF
:1005A00080938000089584B58F7784BD089584B5C5
:1005B0008F7DFBCF8091B0008F778093B00008953E
:1005C0008091B0008F7DF9CFCF93DF93282F30E05B
:1005D000F901E750FE4F8491F901E35FFD4FD4919B
:1005E000F901E55DFD4FC491CC23A1F081110E947A
:1005F000BB02EC2FF0E0EE0FFF1FE151FE4FA59183
:10060000B491EC91ED2381E090E009F480E0DF917A
:10061000CF91089580E090E0FACF1F93CF93DF93BE
:10062000282F30E0F901E750FE4F8491F901E35F94
:10063000FD4FD491F901E55DFD4FC491CC23A9F0A4
:10064000162F81110E94BB02EC2FF0E0EE0FFF1F6E
:10065000EF5DFD4FA591B4918FB7F894EC91111116
:1006600008C0D095DE23DC938FBFDF91CF911F911F
:100670000895DE2BF8CFCF93DF9390E0FC01E35F8A
:10068000FD4F2491855D9D4FFC0184918823C9F025
:1006900090E0880F991FFC01EB51FE4FA591B4919A
:1006A000FC01EF5DFD4FC591D49161110DC09FB765
:1006B000F8948C91209582238C9388812823288319
:1006C0009FBFDF91CF910895623051F49FB7F894A6
:1006D0003C91822F809583238C93E8812E2BEFCF42
:1006E0008FB7F894EC912E2B2C938FBFEACF1F93EA
:1006F000CF93DF93182FEB0161E00E943B0320971B
:1007000039F460E0812FDF91CF911F910C940D039C
:10071000CF3FD10511F461E0F5CFE12FF0E0E750D4
:10072000FE4FE491E33031F140F4E130B1F0E230DA
:10073000E1F0C038D1057CF7E4CFE73029F1E830AB
:1007400059F1E430B1F7809180008062809380009D
:10075000D0938B00C0938A0004C084B5806884BDA8
:10076000C7BDDF91CF911F91089584B5806284BD8C
:10077000C8BDF7CF80918000806880938000D093BF
:100780008900C0938800EDCF8091B000806880938D
:10079000B000C093B300E5CF8091B0008062809339
:1007A000B000C093B400DDCF8E3008F08E5087705B
:1007B000806480937C0080917A00806480937A00CA
:1007C00080917A0086FDFCCF80917800909179002D
:1007D00008953FB7F8948091D3039091D403A091EA
:1007E000D503B091D60326B5A89B05C02F3F19F0BD
:1007F0000196A11DB11D3FBFBA2FA92F982F8827A1
:10080000BC01CD01620F711D811D911D42E0660F7B
:10081000771F881F991F4A95D1F708958F929F924D
:10082000AF92BF92CF92DF92EF92FF926B017C0169
:100830000E94E9034B015C01C114D104E104F104FD
:10084000B9F00E94E903681979098A099B09683E91
:1008500073408105910580F321E0C21AD108E108B7
:10086000F10888EE880E83E0981EA11CB11CE4CF2D
:10087000FF90EF90DF90CF90BF90AF909F908F90C0
:1008800008952FB7F8946091CF037091D0038091B1
:10089000D1039091D2032FBF08954F925F926F9230
:1008A0007F92AF92BF92CF92DF92EF92FF920F931F
:1008B0001F93CF93DF93EC016B017B01E40EF51ED8
:1008C0008B015801AC18BD080E151F0511F10E94CF
:1008D0004104688779878A879B87E881F981028448
:1008E000F385E02DCE01099597FF23C00E944104B6
:1008F000488459846A847B84641975098609970938
:100900004C805D806E807F80641575058605970537
:1009100020F3C501DF91CF911F910F91FF90EF90D0
:10092000DF90CF90BF90AF907F906F905F904F908F
:100930000895F80181938F01C4CF87E00E94E402FB
:10094000892BD9F7089520915D03260F3327331F94
:1009500021323105ECF42091A603FC0190E080E007
:10096000243069F082E00895A0915D032191AC01EB
:10097000435C5C4FA40FB52FB11D2C9301968617D5
:1009800098F380915D03680F60935D0380E00895A4
:1009900081E008951092A60381E08093A503109250
:1009A000800361E082E10E940D0361E083E10E9427
:1009B0000D03E9EBF0E080818E7F808380818D7F65
:1009C000808388E48093B80085E48093BC00089518
:1009D000CF93DF9391E090933C038823B9F0C091CB
:1009E000B800D091BA008091BC008A7B8093BC0093
:1009F00060E082E10E940D0360E083E10E940D034C
:100A00000E94CA04D093BA00C093B800DF91CF917E
:100A10000895E0914C0480914B04E81730F4F0E025
:100A2000E45EFC4F808190E008958FEF9FEF089582
:100A300090914C0480914B042FEF3FEF981748F4AE
:100A4000E92FF0E0E45EFC4F208130E09F5F90935F
:100A50004C04C901089580914B0490914C04891B6A
:100A6000990B0895CF92DF92EF92FF920F931F930D
:100A7000CF93DF937C01CB018A012091AC03222329
:100A800089F0EB016B01C40ED51ECC15DD0569F0B4
:100A90006991D701ED91FC910190F081E02DC701A2
:100AA0000995F3CF642F0E94A304C801DF91CF9171
:100AB0001F910F91FF90EF90DF90CF900895CF930B
:100AC000DF931F92CDB7DEB769832091AC03222359
:100AD000F9F020914904203258F021E030E0FC0187
:100AE0003383228390E080E00F90DF91CF910895CF
:100AF00080914A04E82FF0E0E355FC4F9981908300
:100B00008F5F80934A048093490481E090E0ECCFAA
:100B100061E0CE0101960E94A304F7CFCF92DF924D
:100B2000EF92FF920F931F93CF93DF93FC01C48149
:100B300021E02093AC03C093CD0310924A0410929D
:100B400049048385682B89E295E00E945F05D09176
:100B50004904D13208F092C00E94E9036B017C0184
:100B60008091A603811165C082E08093A60381E095
:100B70008093A5038FEF8093A4031092A303D093D7
:100B8000A203ADEAB3E0E2E8F3E080E0D81385C069
:100B90001092810380918103CC0FC82BC0938103F5
:100BA00080918003813009F07CC0109280030E9404
:100BB000E9036B017C01809181038093BB008091EC
:100BC000A8039091A903A091AA03B091AB03892B2C
:100BD0008A2B8B2B99F00E94E9030091A8031091B6
:100BE000A9032091AA033091AB036C197D098E09EA
:100BF0009F090617170728073907E0F18091BC0005
:100C000083FDD9CF85EC8093BC000E94E9036B0182
:100C10007C018091A603823009F445C08091A40331
:100C20008F3F61F18091A403803241F18091A40350
:100C300025C08091A8039091A903A091AA03B09127
:100C4000AB03892B8A2B8B2B09F48ACF0E94E903F3
:100C50000091A8031091A9032091AA033091AB033E
:100C60006C197D098E099F09061717072807390790
:100C700008F076CF8091A7030E94E80410924A04FE
:100C8000109249041092AC03DF91CF911F910F9104
:100C9000FF90EF90DF90CF9008959D9191938F5F9B
:100CA00075CF85EEB0CF8091A8039091A903A09154
:100CB000AA03B091AB03892B8A2B8B2B09F4A9CF04
:100CC0000E94E9030091A8031091A9032091AA03AF
:100CD0003091AB036C197D098E099F090617170720
:100CE0002807390708F095CFC5CFFC0120812EBD1C
:100CF0009B012150310941F051810DB407FEFDCF18
:100D00004EB55EBD4193F5CF61507109860F971FB7
:100D10000DB407FEFDCF2EB5FC0120830895E091B0
:100D2000D903F091DA0380819091D803892B8083D5
:100D30000895E091D903F091DA0390818091D8036E
:100D400080958923808308958EBD00000DB407FE31
:100D5000FDCF8EB50895CF93DF931F92CDB7DEB749
:100D6000898389810E94A4062AE030E00000215096
:100D70003109E1F70F90DF91CF910895CF93DF9381
:100D8000EC018FEF0E94AB0688838AE090E00000C0
:100D90000197E9F7DF91CF910895AF92BF92CF927B
:100DA000DF92EF92FF920F931F93CF93DF9300D0C8
:100DB000CDB7DEB7182F6B017A011A8289EEA82E03
:100DC00083E0B82E1982CE0101960E94BE06898169
:100DD0008F3E31F091E0A91AB10831F1803E91F7D0
:100DE000CE0102960E94BE0610688A8118131EC0AA
:100DF000CE0102960E94BE068A818130B9F48FEF3F
:100E00000E94AB06F701808310E000E0F7018081CB
:100E100080171106D1F0CCF0C601800F911F0E94FF
:100E2000BE060F5F1F4FF2CF803ED1F290E080E010
:100E30000F900F90DF91CF911F910F91FF90EF9046
:100E4000DF90CF90BF90AF900895CE0102960E94A0
:100E5000BE0681E090E0ECCFAF92BF92CF92DF92DE
:100E6000EF92FF920F931F93CF93DF93CDB7DEB72F
:100E700028970FB6F894DEBF0FBECDBF8C017B0163
:100E80006A0180916D048333E1F45801A40EB51E0C
:100E9000A016B10609F46FC00E94990680EF0E9467
:100EA000A406812F0E94A406802F0E94A4060F5F33
:100EB0001F4FF70181917F010E94A4060E948F06B7
:100EC000E7CF5B01A40EB51E8433C1F40E949906DE
:100ED00019830A838D2D80688B83CC8264E070E057
:100EE000CE0101960E947506AE14BF0409F441C0FC
:100EF000F70181917F010E94A406F6CF0E94990616
:100F00000F3F110509F028F419820A8384E08B83CE
:100F10000CC017FD17C019820A8333E01695079598
:100F20003A95E1F7007E0C600B8386E0C816D10489
:100F3000A0F5F701DE011496EA15FB0599F0819101
:100F40008D93FACFC80126E0969587952A95E1F70B
:100F5000807E19830A830115104C10F48461D7CF69
:100F60008C61D5CFB6016D5F7F4FCE0101960E9497
:100F700075060E948F06C60128960FB6F894DEBF4C
:100F80000FBECDBFDF91CF911F910F91FF90EF90DA
:100F9000DF90CF90BF90AF90089563E070E0CE01F6
:100FA00001960E947506F70181917F010E94A406B7
:100FB000AE14BF04C1F7DDCFCF93DF931F92CDB73F
:100FC000DEB7898341E050E0BE016F5F7F4F90E064
:100FD00080E00E942C070F90DF91CF91089590E060
:100FE00020916D04233339F40C96982F990F990FA3
:100FF000990F80E008954896F8CFDA01E091DB037D
:10100000F0E0FE2FEE27E60FF71F90E0982F8827DD
:10101000A901BD018E0F9F1F0C942C07CF93DF9366
:1010200000D0CDB7DEB779836A8322E030E0AE012D
:101030004F5F5F4F60E170E00E94FD070F900F90DF
:10104000DF91CF910895CF93DF9300D0CDB7DEB776
:1010500079836A8322E030E0AE014F5F5F4F64E046
:1010600070E00E94FD070F900F90DF91CF910895DF
:10107000CF93DF931F92CDB7DEB72091DB0330E033
:10108000322F2227260F371F90E0982F8827498379
:1010900041E050E0BE016F5F7F4F820F931F0E94BF
:1010A0002C070F90DF91CF910895CF93DF931F927C
:1010B000CDB7DEB76983DC01ED91FC910280F3814D
:1010C000E02D41E050E0BE016F5F7F4F09950F902A
:1010D000DF91CF910895FC019485FB0184859813DD
:1010E00003C081E0943008F080E00895CF93DF934F
:1010F0001F92CDB7DEB76983DC01ED91FC910280D0
:10110000F381E02D41E050E0BE016F5F7F4F099514
:101110000F90DF91CF9108950895FF920F931F9341
:10112000CF93DF93EB01FC01178A168A2A812111E4
:1011300009C02B81211106C02C81211103C02D81F2
:10114000222301F141155105E9F08A01FC01F08CDF
:1011500080E591E00E948D01AE014E5F5F4F24E07B
:1011600030E06CE070E08F2D0E94FD07B8018F2DFC
:101170000E940E0881E090E0DF91CF911F910F91C6
:10118000FF90089580E0F7CFFC0184859585089550
:10119000FC0184899589089527EC31E0FC013183B5
:1011A0002083FB014089518962897389FC01428354
:1011B0005383648375830895DC01ED91FC91048C65
:1011C000F58DE02D099490E080E00895CF93CFB79E
:1011D000F89480911B03811127C0E5E3F2E084912C
:1011E000E7E1F2E09491E82FF0E0EE0FFF1FEB5102
:1011F000FE4FA591B491EC91E92321F461E08AE0DE
:101200000E940D0361E08AE00E943B038CB580617F
:101210008CBD8CB580648CBD61E08DE00E943B0389
:1012200061E08BE00E943B0380911B038F5F809302
:101230001B03CFBFCF9108950E94E60861E08AE0CA
:101240000E943B0360E087E00E943B0361E089E08D
:101250000E943B0361E08AE00E940D0361E08AE0A6
:101260000E940D0360E089E00C940D038EE00E9463
:10127000D403BC01990F880B990B0E94253220E002
:1012800030E040EA50E40E94843220E030EC4FE746
:1012900054E40E94DC332AE037ED43E25CE30E9431
:1012A000DC33089590E080E00E94960290E080E0B8
:1012B0000C94960290E080E00E94960281E090E01B
:1012C0000C949602CF9380E390E00E9496028EE603
:1012D00094E00E940702892BD1F38EE694E00E94ED
:1012E000E501C82F80931A038EE694E00E9407025E
:1012F000892BD1F38EE694E00E94E50120E03C2F9B
:10130000A901482BCA01CF910895FC019485992326
:1013100069F080819181DC01ED91FC910688F7896B
:10132000E02D099591E0811101C090E0892F089589
:10133000DC011C961C921C978D919C91DC01ED9117
:10134000FC910488F589E02D0994FC017687658776
:101350000895DC01ED91FC91068CF78DE02D099547
:1013600091E089270895862F089581E086270895C2
:1013700021E0FC018485843008F020E0822F08956C
:101380008F929F92AF92BF92EF92FF920F931F9313
:10139000CF93DF93CDB7DEB7A1970FB6F894DEBF3A
:1013A0000FBECDBF7C01FA01CB0119A2223008F497
:1013B0002AE08E010F5D1F4F822E912CB12CA12CA3
:1013C000BF01A50194010E94AB33F901CA016A3043
:1013D00074F5605DD8016E938D01232B242B252B92
:1013E00079F790E080E0109789F0FD0101900020EE
:1013F000E9F73197AF014A1B5B0BD701ED91FC91E7
:101400000280F381E02DB801C7010995A1960FB6BE
:10141000F894DEBF0FBECDBFDF91CF911F910F912A
:10142000FF90EF90BF90AF909F908F900895695C70
:10143000D1CFFC0101900020E9F73197AF01481BA3
:10144000590BBC018BE695E00C94A9018F929F92F9
:10145000AF92BF92CF92DF92EF92FF920F931F93C2
:10146000CF93DF937C01EB016C0182E0C80ED11CAD
:101470004701E5E08E0E911C10E000E0F60141917D
:101480006F0150E070E060E02AE0CE010E94C009E8
:101490005C01E881F9810190F081E02D6EE2CE01DE
:1014A00009958A0D9B1D080F191FC814D90431F71F
:1014B000F701458150E070E060E02AE0CE010E9433
:1014C000C009800F911FDF91CF911F910F91FF9065
:1014D000EF90DF90CF90BF90AF909F908F90089546
:1014E0000F931F93CF938C01C62F0E948E056C2FF4
:1014F0006460C8010E948E056C2F6B7FC8010E943A
:101500008E0583EC90E00197F1F7CF911F910F9139
:1015100008950F931F93CF93DF938C01D62FC42F81
:10152000607F642B0E94700A80E1D89FB001112473
:101530006C2BC801DF91CF911F910F910C94700A11
:10154000CF93DF93CDB7DEB728970FB6F894DEBF01
:101550000FBECDBF98E0EDE2F1E0DE011196019003
:101560000D929A95E1F790917305961708F46FEF35
:10157000262F30E0220F331F41E050E04C0F5D1F5B
:10158000240F351FF9016081680F606840E08BE629
:1015900095E028960FB6F894DEBF0FBECDBFDF9161
:1015A000CF910C94890AFB01808191810E944C2F7C
:1015B000892B81F081E090E00E94960281E090E02A
:1015C0000E94960261E087E00E94A00A89EC91E007
:1015D0000C94190A81E090E00E94960290E080E06D
:1015E0000E94960261E087E00E94A00A83ED91E0EC
:1015F000EFCFFB01808191810E944C2F21E0009769
:1016000009F420E020934E04892B51F00E945A09DE
:1016100061E087E00E94A00A8DED91E00C94190A28
:101620000E94520961E087E00E94A00A87EE91E0E3
:10163000F5CFFB01808191810E944C2F21E0009722
:1016400009F420E020934D04892B61F061E085E0EE
:101650000E940D0360E087E00E94A00A81EF91E004
:101660000C94190A60E085E00E940D0360E087E0B9
:101670000E94A00A8BEF91E0F3CFFB018081918162
:101680000E944C2F892B61F061E084E00E940D03E1
:1016900060E087E00E94A00A85E092E00C94190ABD
:1016A00060E084E00E940D0360E087E00E94A00AF1
:1016B0008FE092E0F3CF41E00E94890A81E090E060
:1016C0000895AF92BF92CF92DF92EF92FF920F9365
:1016D0001F93CF93DF9300D000D0CDB7DEB78C013E
:1016E0006B017A0180916D048333E9F45B01680139
:1016F000C40ED51EC016D106A9F10E9499068FE02E
:101700000E94A406812F0E94A406802F0E94A40696
:101710000F5F1F4F80E00E94A406F50181935F01D7
:101720000E948F06E7CF843369F50E9499061983DA
:101730000A838F2D8F778B83EC8264E070E0CE017B
:1017400001960E947506A70170E060E0C6010E9444
:101750004335E114F10421F0B701C6010E9475067A
:101760000E948F06C7010F900F900F900F90DF918E
:10177000CF911F910F91FF90EF90DF90CF90BF908E
:10178000AF9008950E9499060F3F110509F030F4BB
:1017900019820A831B8263E070E0D1CF17FD0BC072
:1017A00019820A8333E0169507953A95E1F7007E92
:1017B00008600B83F0CFC80126E0969587952A959F
:1017C000E1F7807E19830A830115104C18F48061BB
:1017D0008B83E1CF8861FCCFCF93DF931F92CDB78E
:1017E000DEB72091DB0330E0322F2227260F371F90
:1017F00090E0982F882741E050E0BE016F5F7F4F57
:10180000820F931F0E94610B89810F90DF91CF910E
:101810000895CF93C82F462F61E070E00E943808EA
:1018200061E070E08C2F0E94EC0B8111F9CFCF9119
:101830000895CF93C82F80E591E00E948D0168E064
:1018400070E08C2FCF910C94090CCF93C82F80E5BA
:1018500091E00E948D0160E170E08C2FCF910C949B
:10186000090CCF93DF93EC01888D843020F40E9423
:10187000250C84E0888FDF91CF910895CF93C82FF6
:1018800080E591E00E948D0163E070E08C2FCF91A4
:101890000C94EC0BCF93DF93EC018C858430D0F467
:1018A0000E943E0C843189F0882379F0883169F0F8
:1018B00021E08C3159F4E881F9810084F185E02D33
:1018C000CE01099521E0892B09F420E0822FDF91D8
:1018D000CF91089580E0FBCFCF92DF92EF92FF92FD
:1018E000CF93DF93EC018C85843068F40E94190C4F
:1018F0000E9441046B017C018C850E943E0C811189
:1019000009C084E08C87DF91CF91FF90EF90DF904A
:10191000CF90089561E070E080E090E00E940E04B6
:101920000E944104AB01BC014C195D096E097F099D
:101930008D859E85B0E0A0E0481759076A077B07B0
:10194000D8F28C850E94250CDCCFCF93FC01C08D92
:1019500080E591E00E948D0160E270E08C2F0E9492
:10196000090C62E070E08C2F0E94EC0B84FD16C025
:1019700062E070E08C2F0E94EC0B83FF0AC048E10C
:1019800062E070E08C2F0E94380880E090E0CF91F8
:10199000089580E591E00E948D01E3CF40E162E08F
:1019A00070E08C2F0E94380881E0F0CFCF93DF9356
:1019B0001F92CDB7DEB741E050E0BE016F5F7F4FB1
:1019C00090E080E00E94610B89810F90DF91CF91C0
:1019D0000895CF93DF93C4E1D0E00E94D60C882312
:1019E00061F061E070E080E090E00E940E042197D9
:1019F000A1F780E0DF91CF91089581E0FBCF1F93A5
:101A0000CF93DF931F92CDB7DEB7182F80E591E01B
:101A10000E948D01812F0E94EF0727E0129FF001A5
:101A20001124EF5AFB4F22813381377041E050E09F
:101A3000BE016F5F7F4F820F931F0E94610B8981F0
:101A40000F90DF91CF911F910895FC01808D84301C
:101A500040F4218D328D232B21F00E94FF0C90E069
:101A600008958FEF9FEF0895CF93DF93FC012485B6
:101A7000243028F08FEF9FEFDF91CF910895EC0194
:101A80000190F081E02D0084F185E02D0995892BEE
:101A900089F38C850E94FF0C90E0EECFDA01E09193
:101AA000DB03F0E0FE2FEE27E60FF71F90E0982F04
:101AB0008827A901BD018E0F9F1F0C94610B8F9287
:101AC0009F92AF92BF92CF92DF92EF92FF921F93BD
:101AD000CF93DF93CDB7DEB72C970FB6F894DEBF68
:101AE0000FBECDBF20916D0414E0222339F16B01AC
:101AF0007C0180E591E00E948D015E0127E0A20E4D
:101B0000B11C450110E063E070E0812F0E94EC0BF6
:101B1000F40181934F01882349F11F5F143099F735
:101B200010E0F50181915F018D31D9F08831C9F064
:101B30008A518230B0F01F5F143099F7812F2C96B4
:101B40000FB6F894DEBF0FBECDBFDF91CF911F91CE
:101B5000FF90EF90DF90CF90BF90AF909F908F90CD
:101B6000089560E170E0812F0E94090CA12EB12C34
:101B700083EE93E00197F1F742E870E060E0812F97
:101B80000E9438084FEF62E070E0812F0E94380811
:101B9000B601C114D10491F48091210190912201E8
:101BA00001968115F0EC9F0708F45CC09093220128
:101BB000809321016091210170912201812F0E9467
:101BC000230886E0E5E3F1E0DE01119601900D9235
:101BD0008A95E1F7F70183818F778C8384818D83E8
:101BE00085818E83A7014E5F5F4F24E030E06CE07B
:101BF00070E0812F0E94FD07B601812F0E940E0820
:101C000026E030E0AE014F5F5F4F66E070E0812F6D
:101C10000E94FD0761E070E0812F0E94090C27E01F
:101C20002A9DC0012B9D900D11249C012F5A3B4FE2
:101C30007901F9011182108222E030E0AE01455FA6
:101C40005F4F68E270E0812F0E944E0D8B859C856E
:101C5000982789279827F701938382831682158214
:101C600014826CCF80E090ECA1CFCF92DF92EF9204
:101C7000FF920F931F93CF93DF9300D000D000D03B
:101C8000CDB7DEB78C016B017A01FC01808D843009
:101C900010F40E94250C87EC91E09A838983F60169
:101CA00082819381A481B5818B839C83AD83BE8324
:101CB000B701CE0101960E945F0DF801808F84303C
:101CC000A0F4F586E486128E118E81E026960FB67A
:101CD000F894DEBF0FBECDBFDF91CF911F910F9162
:101CE000FF90EF90DF90CF90089580E0EFCFAF921C
:101CF000BF92CF92DF92EF92FF920F931F93CF93F9
:101D0000DF9300D000D000D0CDB7DEB7082F6B0135
:101D100080E591E00E948D019E012F5F3F4F790188
:101D2000590110E063E070E0812F0E94EC0BF50197
:101D300081935F01882341F11F5F143099F710E010
:101D4000F70181917F018D31D1F08831C1F08A5145
:101D50008230A8F01F5F143099F7812F26960FB6B6
:101D6000F894DEBF0FBECDBFDF91CF911F910F91D1
:101D7000FF90EF90DF90CF90BF90AF90089560E11B
:101D800070E0812F0E94090CE12EF12C83EE93E08C
:101D90000197F1F7402F70E060E0812F0E94380832
:101DA0004FEF62E070E0812F0E943808B601CD2825
:101DB00089F4809121019091220101968115F0EC26
:101DC0009F0798F190932201809321016091210156
:101DD00070912201812F0E94230861E070E0812F21
:101DE0000E94090C27E02E9DC0012F9D900D11240B
:101DF0009C012F5A3B4F7901F9011182108222E098
:101E000030E0AE014B5F5F4F68E270E0812F0E94CF
:101E10004E0D8D819E81982789279827F7019383FE
:101E2000828316821582148298CF80E090ECCACF0C
:101E3000CF92DF92EF92FF921F93CF93DF93EC014B
:101E40007B016A018C85843048F40E943E0C882313
:101E500019F08C850E94190C84E08C87F70182812F
:101E60009381A481B5810097A105B10551F490E05B
:101E700080E0DF91CF911F91FF90EF90DF90CF90A6
:101E800008958F3F9F4FAF4FBF4F89F380916D04EF
:101E9000811103C084E08C87EACF70E060E081E2CA
:101EA0000E94770E182F8C87843008F780E591E028
:101EB0000E948D01A7014E5F5F4F24E030E06CE08F
:101EC00070E0812F0E94FD07B601812F0E940E084D
:101ED00064E070E0812F0E94090C0E9441046B01B4
:101EE0007C018C850E943E0C873109F18C31F9F020
:101EF000882309F4BCCF0E944104AB01BC014C19FA
:101F00005D096E097F098D859E85B0E0A0E084178C
:101F10009507A607B70738F061E070E080E090E031
:101F20000E940E04DECF8C850E94250CB3CF81E089
:101F300090E09FCF0F931F93CF93DF93EC018B0122
:101F4000888D843010F40E94250C80916D048111DD
:101F500007C094E0988FDF91CF911F910F91089562
:101F6000B80182E00E94770E888F843030F41D879C
:101F70000C871A8E198E81E0EECF80E0ECCF7F9235
:101F80008F929F92AF92BF92CF92DF92EF92FF9289
:101F90000F931F93CF93DF9300D0CDB7DEB7782E8A
:101FA0008B014A01590122E030E0AE014F5F5F4FE3
:101FB00064E270E00E944E0DE980FA80FE24EF2476
:101FC000FE24E00EF11E9701377040916D04072D3D
:101FD00010E0433309F042C0085F1F4F102F002765
:101FE000110F110F110FC901800F911F4733C9F154
:101FF000A9014A0D5B1D4130584098F160E078E03E
:102000006B01C21AD30AA601B4010E942C07A501D4
:102010004C195D09B4016C0D7D1DC8010E942C078F
:10202000EA0CFB1CF982EA8222E030E0AE014F5F4D
:102030005F4F64E270E0872D0E94FD070F900F90C4
:10204000DF91CF911F910F91FF90EF90DF90CF9094
:10205000BF90AF909F908F907F900895005F1F4F2B
:10206000BDCFA501B401DACFEF92FF921F93CF93BA
:10207000DF9300D0CDB7DEB7182F22E030E0AE01FD
:102080004F5F5F4F60E270E00E944E0DE980FA8082
:10209000FE24EF24FE2422E030E0AE014F5F5F4FCC
:1020A00060E270E0812F0E944E0D89819A8198270D
:1020B00089279827E816F90689F487E0189FF00128
:1020C0001124EF5AFB4FF582E482C7010F900F9065
:1020D000DF91CF911F91FF90EF9008957C01DBCFAE
:1020E0001F93CF93DF93182F80E591E00E948D011D
:1020F000812F0E943410EC0163E070E0812F0E9478
:10210000EC0B873121F08C3111F0D0E0C0E0CE0132
:10211000DF91CF911F910895CF93DF93EC018C85D0
:10212000843060F40E943E0C873111F08C3131F420
:102130008C850E9470108115984088F3DF91CF91B3
:102140000895FC018485843010F40C94701090E0A4
:1021500080E008959F92AF92BF92CF92DF92EF926C
:10216000FF920F931F93CF93DF938C015B01942E0B
:10217000E52EFC01C688D788F08C80E591E00E94AE
:102180008D018F2D0E943410C92DDE2D8C179D07D7
:1021900008F4EC019E01A501B6018F2D0E94BF0F2E
:1021A000F801868997898C0F9D1F978B868BCE01AE
:1021B000DF91CF911F910F91FF90EF90DF90CF9023
:1021C000BF90AF909F9008958F929F92AF92BF92D1
:1021D000CF92DF92EF92FF920F931F93CF936C01F8
:1021E0005B018A01FC01C485C430F0F57A014130FD
:1021F000584018F0E12C88E0F82E80E591E00E942C
:102200008D018C2F0E9434104C0163E070E08C2F04
:102210000E94EC0B873111F08C3149F58E149F042C
:1022200060F380E591E00E948D019701A50170E0C7
:1022300060E08C2F0E94BF0F60E270E08C2F0E9444
:10224000090C62E070E08C2F0E94EC0B84FD17C03B
:1022500063E070E08C2F0E94EC0B81110BC081E0D9
:1022600090E0F6019383828310E000E010C0F12C2F
:10227000E12CD7CF80E591E00E948D01E2CF40E1D3
:1022800062E070E08C2F0E943808EF2841F3C8010B
:10229000CF911F910F91FF90EF90DF90CF90BF9063
:1022A000AF909F908F900895FF920F931F93CF93BD
:1022B000DF9300D0CDB7DEB7F82E22E030E0AE01DC
:1022C0004F5F5F4F66E270E00E944E0D09811A81F8
:1022D00010270127102722E030E0AE014F5F5F4F4B
:1022E00066E270E08F2D0E944E0D89819A819827B9
:1022F000892798270817190749F4C8010F900F90EC
:10230000DF91CF911F910F91FF9008958C01E3CF42
:102310001F93CF93DF93182F87E0189FE0011124BC
:10232000CF5ADB4F88819981009761F480E591E075
:102330000E948D01812F0E9454112E81821B9109D0
:1023400099838883DF91CF911F910895FC01848543
:10235000843010F40C94881190E080E008954F923E
:102360005F927F928F929F92AF92BF92CF92DF92B5
:10237000EF92FF920F931F93CF93DF9300D0CDB7CF
:10238000DEB7782E6B014A01A82EB12C27E0829F80
:10239000C0011124FC01EF5AFB4F7F010081118124
:1023A00080E591E00E948D010815190554F4872DF0
:1023B0000E945411F70126818C01021B110911831F
:1023C00000830115110529F563E070E0872D0E9457
:1023D000EC0B843159F0882349F001E010E08C3196
:1023E00011F410E000E0119501951109C8010F905A
:1023F0000F90DF91CF911F910F91FF90EF90DF90A1
:10240000CF90BF90AF909F908F907F905F904F90B4
:102410000895801691060CF4840187E08A9DF001EE
:102420008B9DF00D1124EF5AFB4FE280F380C11415
:10243000D10451F12701F7E05F22872D0E94EF07B9
:10244000840D951D20916D04273309F453C0980124
:10245000240D351D2130384008F44CC020E038E010
:10246000490184189508A401B6010E94610B260158
:10247000480C591C6801C818D908872D0E94EF071D
:10248000A601B2010E94610BE00EF11E87E08A9D59
:10249000F0018B9DF00D1124EF5AFB4FF382E28285
:1024A00020813181201B310B318320838681800F75
:1024B000912F911D8A3F910510F4232BF1F487E0B1
:1024C0008A9DF0018B9DF00D1124EF5AFB4F16826F
:1024D000F982EA8222E030E0AE014F5F5F4F68E2AE
:1024E00070E0872D0E94FD0760E470E0872D0E9458
:1024F000090C7CCFA801B601C5CF868377CFCF93D7
:10250000DF93FC01218D328D2115310529F48FEFE8
:102510009FEFDF91CF910895EC01808D4217530713
:1025200008F0A9010E94AF111816190684F7298D29
:102530003A8D281B390B3A8F298FEBCF0F931F93BE
:10254000CF93DF931F92CDB7DEB7FC01218D328D83
:10255000232B41F48FEF9FEF0F90DF91CF911F91CD
:102560000F9108958C0141E050E0BE016F5F7F4FF5
:10257000FC01808D0E94AF11181619065CF7F80156
:10258000818D928D0197928F818F898190E0E4CF28
:10259000CF93DF931F92CDB7DEB741E050E0BE018D
:1025A0006F5F7F4FFC0184850E94AF1118161906DA
:1025B00034F4898190E00F90DF91CF9108958FEFEF
:1025C0009FEFF9CFFC018485843010F40C94AF1197
:1025D00090E080E008950F931F93CF93DF9300D096
:1025E000CDB7DEB7FC0124852430E0F48C0180E512
:1025F00091E00E948D0122E030E0AE014F5F5F4F1D
:1026000060E170E0F80184850E944E0D89819A8115
:102610009827892798270F900F90DF91CF911F91CE
:102620000F91089590E080E0F6CF0F931F93CF9322
:10263000DF9300D0CDB7DEB7FC0124852430E0F471
:102640008C0180E591E00E948D0122E030E0AE0136
:102650004F5F5F4F64E070E0F80184850E944E0D8B
:1026600089819A819827892798270F900F90DF9169
:10267000CF911F910F91089590E080E0F6CFDC019B
:1026800087EC91E08D939D9384E0FB0101900D9286
:102690008A95E1F70895EF92FF920F931F93CF93DE
:1026A000DF9300D000D0CDB7DEB78C017B01FB01FA
:1026B00084858430A8F087EC91E0F80191838083D1
:1026C0001282138214821582C8010F900F900F900E
:1026D0000F90DF91CF911F910F91FF90EF90089590
:1026E00080E591E00E948D0124E030E0AE014F5F73
:1026F0005F4F6CE070E0F70184850E944E0DBE01D3
:102700006F5F7F4FC8010E943F13DECF0F931F936F
:10271000CF93DF93CDB7DEB728970FB6F894DEBF1F
:102720000FBECDBF8C01D80159964D915C915A973F
:102730004115510551F0ED91FC91048CF58DE02D82
:1027400070E060E0C8010995EECFF801808D0E942D
:102750008811892BB1F148E050E0BE016F5F7F4FD7
:10276000D80158968C910E94AF1118161906F4F4EE
:10277000D801509684E0FE01319601900D928A9521
:10278000E1F78D8190E0982F88272E81820F911D8F
:10279000F801958B848B8F81282F30E0322F2227F0
:1027A0008885820F932F911D928F818F28960FB667
:1027B000F894DEBF0FBECDBFDF91CF911F910F9177
:1027C000089590E080E0F2CF4F925F926F927F92F7
:1027D0008F929F92AF92BF92CF92DF92EF92FF9231
:1027E0000F931F93CF93DF93CDB7DEB763970FB6E9
:1027F000F894DEBF0FBECDBF7C016B013A01FB0137
:1028000020E090E080E06AE03191332309F461C078
:1028100040ED430F4A3008F04DC0689FA001699F0A
:10282000500D1124CA01C097830F911D37FD9A9551
:102830008F3F910549F340F3F70142815381648151
:1028400075818091610590916205A0916305B091B9
:102850006405481759076A077B0709F40DC2870109
:10286000085F1F4F0E9441046F7077277C5FC8018B
:102870000E949A0F813009F004C287EC91E09A839C
:102880008983F70182819381A481B5818B839C83A5
:10289000AD83BE8345E350E0BE016F5F7F4FC8014B
:1028A0000E948D08892BA9F5D12CC12CC8010E944A
:1028B000310C17C03E3209F0BFCF233009F4BCCF32
:1028C000D301A20FB11D12968C932F5F90E080E090
:1028D0009BCF233009F0B0CFF3018583CC24C39480
:1028E000D12CC60163960FB6F894DEBF0FBECDBFE4
:1028F000DF91CF911F910F91FF90EF90DF90CF90DC
:10290000BF90AF909F908F907F906F905F904F900F
:1029100008950E944104F7017783668342E050E006
:10292000B7016A5F7F4FC8010E94AA1081E090E062
:102930009A83898342E050E0BE016F5F7F4FC801F8
:102940000E94AA1080E091E09A83898342E050E0DF
:10295000BE016F5F7F4FC8010E94AA101A821982C0
:1029600042E050E0BE016F5F7F4FC8010E94AA1095
:1029700042E050E0BE016F5F7F4FC8010E94AA1085
:1029800042E050E0BE016F5F7F4FC8010E94AA1075
:102990005601F6018081882301F16501F6018191DC
:1029A0002F01882311F08E32B1F446018A189B085A
:1029B0001814190474F48D8641E050E0BE01635F81
:1029C0007F4FC8010E94AA10A401B501C8010E944E
:1029D000AA105201DECF6201E1CF1D8641E050E036
:1029E000BE01635F7F4FC8010E94AA10C12CDD2485
:1029F000D394DA82C98242E050E0BE016F5F7F4F1C
:102A0000C8010E94AA10DA82C98242E050E0BE01E9
:102A10006F5F7F4FC8010E94AA10C8010E94A50CD9
:102A2000892B09F441CFF3E0AF2EB12C230122E032
:102A3000420E511CD4C0F7014281538164817581DB
:102A4000808D918DA28DB38D481759076A077B073A
:102A500009F008C1848D958DC59709F003C181A146
:102A600092A15DEFC52EDD24DA940C970CF4ADC075
:102A70004CE050E0BE016F5F7F4FC8010E947F12A3
:102A80008B819C819827892798279A8B898BF701BE
:102A90004681578129813A814217530709F0E7C0DF
:102AA00097FFE5C08F7092703BEFC32EDD24DA9460
:102AB000892B09F08AC06F80788476246724762475
:102AC0002AEFC22EDD24DA946114710409F47DC06A
:102AD000D12CC12C8D819E81982789279827C816D3
:102AE000D906F8F441E050E0BE01635F7F4FC801B2
:102AF0000E947F124D85442331F050E070E060E089
:102B0000C8010E947F128D858111ECCF44E050E016
:102B100070E060E0C8010E947F12FFEFCF1ADF0A69
:102B2000D9CF912C812C41E050E0BE016D5E7F4FEA
:102B3000C8010E947F124B89842F807C09F06CC0F1
:102B4000442331F050E070E060E0C8010E947F1241
:102B50008B898111E8CF42E050E0BE01615F7F4F79
:102B6000C8010E947F1242E050E0BE01635F7F4FC8
:102B7000C8010E947F1244E050E070E060E0C801AC
:102B80000E947F1242E050E0BE016F5E7F4FC8019D
:102B90000E947F128F85988949895A8981159140B1
:102BA00009F043C0CD84DE84DC24CD24DC2481E024
:102BB000C816D104D1F54115544009F04AC044E08B
:102BC00050E0B201C8010E947F1221E0A21AB108B0
:102BD00009F46CCEFFEFCF16DF0609F067CE0E9436
:102BE00041043B014C01C8010E94861318161906C6
:102BF0000CF421CF0E9441046619770988099909CC
:102C0000693873418105910548F562E370E080E021
:102C100090E00E940E04E7CF41E050E070E060E0F9
:102C2000C8010E947F121B8A93CF5427452754273F
:102C300070E060E0C8010E947F12FFEF8F1A9F0AC8
:102C40006814790409F06FCF96EFC92EDD24DA9469
:102C5000BCCFE7EFCE2EDD24DA94B7CFCC24CA94D4
:102C6000DC2CB3CF6EEFC62EDD24DA94AECF4CEF62
:102C7000C42EDD24DA94A9CF8EEFC82EDD24DA9499
:102C800030CED12CC12C2DCECF92DF92EF92FF927D
:102C90000F931F93CF93DF93CDB7DEB7AF970FB6E8
:102CA000F894DEBF0FBECDBF7C016A0107EC11E0D6
:102CB0001A8309831C861B8688EE93E0A0E0B0E0AF
:102CC0008D879E87AF87B88B8FE391E09A8789873E
:102CD000188F0F8B198E1A8E1B8E1C8E84E089A381
:102CE0001BA70AA71CA61DA61EA61FA680915505F8
:102CF00090915605A0915705B09158058EA39FA3BA
:102D0000A8A7B9A78B839C83AD83BE8318861F8237
:102D1000AE01465D5F4FCE0101960E94E413813003
:102D20009105B1F4D701ED91FC910488F589E02D6E
:102D30001DA30CA38CA59DA5AEA5BFA58EA39FA387
:102D4000A8A7B9A7A601BE016C5D7F4FC701099571
:102D5000AF960FB6F894DEBF0FBECDBFDF91CF9117
:102D60001F910F91FF90EF90DF90CF900895CF9239
:102D7000DF92EF92FF920F931F93CF93DF93CDB724
:102D8000DEB7AF970FB6F894DEBF0FBECDBF8C0194
:102D90006B017A0187EC91E09A8389831B821C8204
:102DA0001D821E821C861B8648EE53E060E070E0A8
:102DB0004D875E876F87788B2FE331E03A872987CD
:102DC000988F8F8B198E1A8E1B8E1C8E24E029A350
:102DD0009BA78AA71CA61DA61EA61FA6D8011C96E7
:102DE0008C91843060F40E943E0C882321F0F8011D
:102DF00084850E94190C84E0D8011C968C938091E4
:102E0000550590915605A0915705B09158058EA390
:102E10009FA3A8A7B9A78B839C83AD83BE83188685
:102E20001F82AE01465D5F4FB601CE0101960E9442
:102E3000E4130097C1F0D801ED91FC910684F78569
:102E4000E02D87EC91E09DA38CA38CA59DA5AEA55C
:102E5000BFA58EA39FA3A8A7B9A7A701BE016C5DBC
:102E60007F4FC8010995AF960FB6F894DEBF0FBE2D
:102E7000CDBFDF91CF911F910F91FF90EF90DF9029
:102E8000CF9008957F928F929F92AF92BF92CF92F0
:102E9000DF92EF92FF920F931F93CF93DF93CDB703
:102EA000DEB7A6970FB6F894DEBF0FBECDBF8C017C
:102EB000762E942E852E20E2A22ECE0101967C0144
:102EC000DC01EA2D1D92EA95E9F76801F3E4CF0EE3
:102ED000D11C87EC91E09AA389A38FEF8BA38CA3DD
:102EE0008DA38EA343E450E0BE016F5D7F4FC6010A
:102EF0000E948D08019609F4BFC081E089838A830E
:102F000086E0B82EBB821C82D80114966D917D910B
:102F10008D919C9117970E9463346D837E838F837C
:102F2000988789869A8680E890E09C878B874CE119
:102F300050E0B701C6010E94AA10FE0137968AE14F
:102F4000DF011D928A95E9F74801B8E08B0E911CCC
:102F5000F401D70101900D92BA94E1F740E150E0FD
:102F6000B701C6010E94AA10F7011192AA94E9F7CD
:102F700096E0A92EB12C40E250E0B701C6010E94B4
:102F8000AA10F1E0AF1AB108B1F783E6898392E89D
:102F90009A8393E59B838C8385E38D8381E08E8385
:102FA0007F829DE3988797E099878A8786E0F4017E
:102FB000DE011B9601900D928A95E1F78CE0898BDA
:102FC0008A8B69E172E0CE0143960E945335D801A5
:102FD0001B966C91CE0149960E949001F801648580
:102FE000CE014B960E949001D8011D966C91CE01A6
:102FF0004D960E9490014EE150E0B701C6010E943B
:10300000AA10B3E07B121EC082E3898384E08A8326
:10301000F80196859B8397859C8390899D839189F0
:103020009E8396E39F838887828D8987838D8A8795
:10303000848D8B87858D8C874CE050E0B701C6016D
:103040000E94AA1087E3898386E08A8391E09B83AC
:1030500093E09C838D838FE08E838AE38F838BE361
:1030600088878FEF898749E050E0B701C6010E9449
:10307000AA10C6010E94A50CA6960FB6F894DEBF52
:103080000FBECDBFDF91CF911F910F91FF90EF90B9
:10309000DF90CF90BF90AF909F908F907F900895DA
:1030A0000F931F93CF93DF93EC01FB01019000205E
:1030B000E9F78F01061B170B8A819B81A801480F36
:1030C000591F2C813D812417350768F028813981EB
:1030D000A801820F931F0E943A354A815B81400FFD
:1030E000511F5B834A83DF91CF911F910F91089508
:1030F0000F931F93CF93DF93EC0188819981009701
:1031000059F02A813B812617370730F081E0DF91A3
:10311000CF911F910F9108958B016F5F7F4F0E9498
:103120007034009759F0998388831B830A832C811C
:103130003D81232B59F7FC011082E8CF80E0E7CFD7
:1031400085ED8093BC008091A8039091A903A09184
:10315000AA03B091AB030796A11DB11D23E0B6955C
:10316000A795979587952A95D1F72091BC0024FDC6
:1031700003C01092A60308954091A8035091A9039B
:103180006091AA037091AB03452B462B472B69F343
:103190000097A105B10541F025E32A95F1F700005C
:1031A0000197A109B109E1CF8091A7030C94E8042C
:1031B0003F924F925F926F927F928F929F92AF92C7
:1031C000BF92CF92DF92EF92FF920F931F93CF9314
:1031D000DF93CDB7DEB7EA970FB6F894DEBF0FBE28
:1031E000CDBF7C012A013B0169010E9441044B01D2
:1031F0005C0187010D5B1F4FC8010E9486131816E2
:1032000019069CF00E944104681979098A099B09F2
:10321000461657066806790608F466C162E370E050
:1032200080E090E00E940E04E7CF42E250E0BE0151
:103230006F5F7F4FC8010E947F1289818230D1F079
:10324000312C832DEA960FB6F894DEBF0FBECDBFAA
:10325000DF91CF911F910F91FF90EF90DF90CF9072
:10326000BF90AF909F908F907F906F905F904F90A6
:103270003F900895F801848995898334910501F779
:103280006D817E818F8198850E9463344B015C0142
:10329000F60180829182A282B38246E050E0B701BB
:1032A000685F7F4FCE014D960E942D35892B41F6E8
:1032B000F70180819181A281B38188169906AA06BF
:1032C000BB0608F4BDCF84819581A681B78188159E
:1032D0009905AA05BB0508F4B3CF89899A89AB89FA
:1032E000BC8986879787A08BB18B4EEC50E070E04D
:1032F00060E0C8010E947F12312CC701829698AB12
:103300008FA7F701B696FAABE9AB08969CAB8BABEF
:1033100067019AE1C90ED11CBD96FEABEDABC701AA
:10332000429698AF8FABFD97FAAFE9AF4701FEE148
:103330008F0E911CF801818D928D181619060CF0D4
:1033400080CFC8010E949E128333910509F4B2C058
:1033500014F58130910509F464C044F4892B51F3CC
:10336000C8010E949E12AC01552775C0833091059B
:1033700009F462C00697A1F7C8010E949E12B82EF8
:1033800044E050E0B401C8010E947F12EB2DE450EC
:10339000FF0BAF0160C08A33910509F45FC084F56B
:1033A00085339105B1F1C697D9F6C8010E949E12E6
:1033B0005C01B601CE0189960E943F138BA59CA5A6
:1033C000ADA5BEA5892B8A2B8B2BB1F0EDA9FEA94B
:1033D0004080518062807380B601CE0183960E9446
:1033E0003F138DA19EA1AFA1B8A5A501481659060E
:1033F0006A067B0609F0B8CF44E050E0B60118C079
:103400008B33910509F440C08F3F910509F492CFA9
:10341000A7CFC8010E949E12C8010E949E12382E9A
:1034200089CFC8010E949E1244E050E06FA978AD98
:10343000C8010E947F127ECFC8010E949E12B82E42
:1034400044E050E069AD7AADC8010E947F128B2D37
:103450008450990BAC0170E060E0EACFC8010E9493
:103460009E1244E050E069A97AA9C8010E947F1227
:10347000F70166A177A180A591A50E94633466A398
:1034800077A380A791A756CFC8010E949E1244E05F
:1034900050E06BA97CA9C8010E947F12F70162A5C8
:1034A00073A584A595A50E94633462A773A784A71A
:1034B00095A740CFC8010E949E1244E050E06FA53E
:1034C00078A9C8010E947F12F70162A173A184A1AB
:1034D00095A10E94633462A373A384A395A366A7F6
:1034E00077A780AB91AB26CF33243A94AACE0F9323
:1034F0001F93CF93DF93CDB7DEB762970FB6F894E3
:10350000DEBF0FBECDBF8C01CB014AE0BE016F5FB5
:103510007F4F0E949A2FBE016F5F7F4FC8010E94AC
:10352000501862960FB6F894DEBF0FBECDBFDF9184
:10353000CF911F910F9108953F924F925F926F929A
:103540007F928F929F92AF92BF92CF92DF92EF9233
:10355000FF920F931F93CF93DF93CDB7DEB7A19761
:103560000FB6F894DEBF0FBECDBF5C010DB71EB71E
:1035700019A308A360E070E0CB010E940E04D501FE
:1035800057968D919C915897912C029709F495C06C
:1035900056968C9156978F5F56968C935697549665
:1035A0002D913C91232B19F0992493947FC0833063
:1035B000D8F7F501808191810E948509882309F45B
:1035C0001DC38E010F5F1F4F3801D501ED91FC9196
:1035D00080819181DC01ED91FC910084F185E02DE9
:1035E0000995181619060CF009C3D501ED91FC9147
:1035F00045E050E0BE01695E7F4F808191810E946D
:103600004D04009711F3059709F04AC0888D998DF4
:10361000982789279827998F888FEA8CFB8CFE241E
:10362000EF24FE24FB8EEA8E892BD1F18F89811144
:1036300069C00E944104F501668377838087918782
:103640002789308D4A8D5B8D232B09F056C0288D3C
:10365000398D2130310509F050C049305105E1F074
:10366000483C510519F044305105D1F4D5011E965E
:103670006D937D938D939C935197E1E0F0E0589684
:10368000FC93EE935797C5010E94922360E070E08F
:10369000CB010E940E0499CF83E090E0908F878B3E
:1036A000D5018D919C910E949809912CD501569637
:1036B0008C915697815056968C93892DE8A1F9A14B
:1036C0000FB6F894FEBF0FBEEDBFA1960FB6F894EB
:1036D000DEBF0FBECDBFDF91CF911F910F91FF9045
:1036E000EF90DF90CF90BF90AF909F908F907F90A2
:1036F0006F905F904F903F9008954530510509F0CD
:1037000064CFCECFF50180819181F1E0EF16FF0605
:1037100040F0D50158961C921E9257970E94980926
:1037200054CF8DB69EB697012F5F3F4FEDB7FEB7D2
:10373000E21BF30B0FB6F894FEBF0FBEEDBF0DB743
:103740001EB70F5F1F4FA701B801DC018D919C913F
:103750000E944D048E159F0509F06AC0EA8DFB8D0D
:10376000E00FF11F10820E944104F5016683778308
:10377000808791878F89813109F42BC258F5863073
:10378000D1F08F3009F4AEC0823051F5D501579693
:103790008D919C915897892B71F4E1E0F0E0589657
:1037A000FC93EE935797C5010E94922360E070E06E
:1037B000CB010E940E04488D598DD12CC12CF12CC7
:1037C000E12C08EC10E030E020E060E0C5010E9450
:1037D000F71E12C08D31D1F258F4843109F482C041
:1037E000F501108E178A808191810E94980904C08A
:1037F000893241F08733A1F70FB6F8949EBE0FBE11
:103800008DBEE3CE84819581892B39F480E490E0EC
:103810000E94832DF50195838483EA8CFB8CE00E56
:10382000F11E1A830983FC82EB820E151F0530F00E
:103830000FB6F8949EBE0FBE8DBE32CF40E450E06E
:10384000B801D50114968D919C910E945A35D501ED
:103850001496ED91FC9117AEC3010E947023FC01F8
:103860008081918100E510E08E159F0560F48981CB
:103870009A81009799F12B813C818217930770F50B
:103880000E946A2F8B01D5018D919C910E9498090D
:10389000D501ED91FC91119714968D919C911597FE
:1038A000918780871387028758961C921E9257979C
:1038B0000E944104DC01CB0188589341A109B10960
:1038C000F50182879387A487B58786839783A0872E
:1038D000B18786879787A08BB18B8ECF60E070E031
:1038E000CB01D0CF888D998DD50155969C938E9321
:1038F00054974A8C5B8C6801C40CD51C1D8F0C8FAF
:10390000DF8ECE8E0C151D0508F0F5C0F801E080A5
:10391000F180CE014C960E947023DC018D919C9128
:103920008C159D0508F0E7C08C8D9D8DFC012081D4
:10393000213459F401960E944C2F3EE0332E380E6C
:10394000069744F033243A9405C0CE014C960E9469
:103950008323382EF6E7EF16F2E7FF0609F4E7C0F7
:1039600038F531E6E31632E7F30609F4C8C044E659
:10397000E41642E7F40609F478C050E7E5165DE680
:10398000F50609F018C18C8D9D8D8C159D0508F0EC
:10399000B2C0FC0120812134A9F501960E944C2F70
:1039A0002EE0F22EF80E069794F1FF24FA942FC021
:1039B00084E6E81687E7F80609F484C096E7E91676
:1039C00097E7F90609F4CAC0A1E6EA16A7E7FA06DE
:1039D00009F0F1C0CE014C960E947023DC018D915C
:1039E0009C918C159D0508F086C061E0832D0E9496
:1039F0003B03CE014C960E948323BC01832D0E9481
:103A0000770379C0CE014C960E948323F82ECE0115
:103A10004C960E9470230C8D1D8D60E272E0C801EF
:103A20000E944A3560E0892B79F063E272E0C801B8
:103A30000E944A35892B39F067E272E0C8010E9482
:103A40004A35892B49F461E08F2D0E943B03CE015A
:103A50004C960E94702397CF6BE272E0C8010E94DF
:103A60004A35892BA1F762E0EFCF7A8A698A1C8AEE
:103A70001B8A00E110E01E8B0D8B6EE272E0CE011E
:103A800041960E945018632D70E0CE0141960E942D
:103A9000771A832D0E94E402BC01CE0141960E9458
:103AA000771A0B891C890150110929893A89D12C6F
:103AB000C12CF12CE12C50E040E064E1C5010E94F2
:103AC000F71E19C0CE014C960E947023DC018D9127
:103AD0009C918C159D0578F461E0832D0E943B0339
:103AE000CE014C960E94832361E0892B09F460E0AB
:103AF000832D0E940D03F501158A148A7DCE7A8AE2
:103B0000698A1C8A1B8AE0E1F0E0FE8BED8B61E3A1
:103B100072E0CE0141960E945018632D70E0CE01F4
:103B200041960E94771A832D0E94D403B5CF398223
:103B3000BFE1B31500F3E32DF0E0EE0FFF1FE15CF2
:103B4000FD4F2591349121153105A9F2E1E02C3882
:103B50003E0789F2C301F9010995CDCFCE014C96FC
:103B60000E9470238C8D9D8D9C01201B310B421A6D
:103B7000530A9A8389835C824B825E824D82398AA2
:103B8000FFE1F31508F4B7CFE32DF0E0EE0FFF1FD0
:103B9000E158FD4F259134912115310509F4ABCF42
:103BA00001E02B38300709F4A6CFB301CE014196CE
:103BB000F9010995A0CFD50154964D915C91D12C76
:103BC000C12CF12CE12C02E010E030E020E060E0BC
:103BD00075CF8A8D9B8D800F911F1A8309839C83DB
:103BE0008B830817190708F007CEC3010E947023C2
:103BF000D50155961C921E925497FECD0E94410409
:103C00002B013C01F501808191810E948509D5013C
:103C100057962D913C912130310509F05EC0F50198
:103C2000811109C046865786608A718A108E178A6C
:103C30008081918138CD86819781A085B18593015E
:103C40008201081B190B2A0B3B0BD901C8018931D2
:103C500016EF9107A105B10548F7893C9F4AA105D8
:103C6000B10590F482859385A485B5859301820181
:103C7000081B190B2A0B3B0BD901C801893C9F4A31
:103C8000A105B10508F490CCF50186859785A0893A
:103C9000B18993018201081B190B2A0B3B0BD90137
:103CA000C80181379741A105B10508F47DCCD12C1D
:103CB000C12CF12CE12C10E000E030E020E050E0DD
:103CC00040E066E0C5010E94F71ED5011E964D92A8
:103CD0005D926D927C92519767CC232B09F064CC56
:103CE000F501468557856089718993018201041B1E
:103CF000150B260B370BB901A801882381F041373A
:103D000057416105710508F44FCC808191810E9473
:103D10009809D50158961C921E925797C6CC4938DF
:103D200053416105710508F43FCC808191810E9467
:103D30009809D5010D911C91F801608571858081EC
:103D4000918142855385DC01ED91FC9161157105EE
:103D5000A9F00088F189E02D0995992493940197A1
:103D600009F0912CF801948691101EC0D5011E9681
:103D70004D925D926D927C92519798CC0684F78516
:103D8000E02D27EC31E03A832983D8011496CD90B9
:103D9000DD90ED90FC901797CB82DC82ED82FE8265
:103DA000BE016F5F7F4FD8CF81E090E0F501938B2C
:103DB000828B22813381F90101900020E9F731974C
:103DC0008F01021B130BD12CC12CF12CE12C41E0F3
:103DD00050E06DE1C5010E94F71EF50182859385D3
:103DE000A485B58586879787A08BB18B5FCC2F92F2
:103DF0003F924F925F926F927F928F929F92AF927B
:103E0000BF92CF92DF92EF92FF920F931F93CF93C7
:103E1000DF9300D000D000D0CDB7DEB75C016E8359
:103E20004A013901DC018D919C910E94850988230A
:103E300009F4D3C08E818D7F09F401C1BE81B630F3
:103E400009F4FDC0BD3109F4FAC0F5018789908DF0
:103E5000019709F0C2C081149104B9F4D5015496B8
:103E60008D909C9055978114910479F452968D9180
:103E70009C915397019609F4C9C053969C938E93D5
:103E80005297D50152968D909C908E818C5089309E
:103E900090F5F50182859385A485B5854681578186
:103EA00060857185481759076A077B0710F4AC01D4
:103EB000BD011A012B01F2E42F0E311C411C511CD3
:103EC0000E944104A2019101261B370B480B590B9C
:103ED000DA01C901B7FDA0C0C5010E949C1A0E9469
:103EE0004104A2019101261B370B480B590BDA0143
:103EF000C901B7FFF1CFC80105966114710411F42F
:103F000085E090E0512C412CE114F10409F02601E8
:103F1000480E591EBE81B9839824892498249B8217
:103F20008A82C8018C0D9D1D9827892798279D831B
:103F30008C83D501ED91FC9180819181DC01ED9123
:103F4000FC910280F381E02D45E050E0BE016F5FFF
:103F50007F4F09954C0160E070E0CB010E940E0498
:103F6000BE81BB2381F101151105A9F0D501ED91A9
:103F7000FC9180819181DC01ED91FC910280F381C3
:103F8000E02DA801B3010995880E991E60E070E04C
:103F9000CB010E940E04C114D104A9F0D501ED910A
:103FA000FC9180819181DC01ED91FC910280F38193
:103FB000E02DA601B7010995880E991E60E070E01A
:103FC000CB010E940E048414950479F1F501108E42
:103FD000178A808191810E94980926960FB6F894DD
:103FE000DEBF0FBECDBFDF91CF911F910F91FF902C
:103FF000EF90DF90CF90BF90AF909F908F907F9089
:104000006F905F904F903F902F90089581E090E0E7
:10401000F501938B828B35CFD50156968C9181110A
:104020006ACFC5010E949C1A66CF0E944104D50147
:104030001A966D937D938D939C931D97CECF81148B
:10404000910409F058CF0ACFCF92DF92EF92FF92FE
:104050000F931F93CF93DF93CDB7DEB7C658D10927
:104060000FB6F894DEBF0FBECDBF8C01CE01019616
:10407000CF57DF4F99838883C158D040CD57DF4F4A
:1040800019821882C358D04080E890E0CB57DF4FA8
:1040900099838883C558D04066E472E0CE018F577B
:1040A0009F4F0E94501866E070E0CE018F579F4FDF
:1040B0000E94771AB801CE018F579F4F0E94501867
:1040C000CD57DF4F08811981C358D04001501109E5
:1040D000CF57DF4F28813981C158D040D12CC12C16
:1040E000F12CE12C50E040E064E189EB96E00E9485
:1040F000F71ECA57DF4F0FB6F894DEBF0FBECDBF15
:10410000DF91CF911F910F91FF90EF90DF90CF90B3
:104110000895CF92DF92EF92FF920F931F93CF9368
:10412000DF93CDB7DEB7C658D1090FB6F894DEBF1E
:104130000FBECDBF7C018B01CE010196CF57DF4F63
:1041400099838883C158D040CD57DF4F1982188298
:10415000C358D04080E890E0CB57DF4F99838883E5
:10416000C558D04066E472E0CE018F579F4F0E9441
:104170005018B701CE018F579F4F0E94771AB80190
:10418000CE018F579F4F0E94771ACD57DF4F08817E
:104190001981C358D04001501109CF57DF4F2881F2
:1041A0003981C158D040D12CC12CF12CE12C50E0E8
:1041B00040E064E189EB96E00E94F71ECA57DF4FAA
:1041C0000FB6F894DEBF0FBECDBFDF91CF911F9128
:1041D0000F91FF90EF90DF90CF9008958F929F9274
:1041E000AF92BF92CF92DF92EF92FF920F931F9305
:1041F000CF93DF93CDB7DEB7C75AD1090FB6F89486
:10420000DEBF0FBECDBF0E9436096B017C01CE011F
:1042100001964C01CE55DF4F99838883C25AD04016
:10422000CC55DF4F19821882C45AD04020E8A22E04
:10423000B12CCA55DF4FB982A882C65AD04066E475
:1042400072E08F559F4F0E94501861E070E0CE01E0
:104250008E559F4F0E94771A8E010F571F4F23E0F4
:1042600045E0C701B6010E94652DB801CE018E550B
:104270009F4F0E945018CC55DF4F08811981C45AB6
:10428000D04001501109CE55DF4F28813981C25AE3
:10429000D040D12CC12CF12CE12C50E040E064E165
:1042A00089EB96E00E94F71E0E9462098C01CE55B0
:1042B000DF4F99828882C25AD040CC55DF4F198295
:1042C0001882C45AD040CA55DF4FB982A882C65A54
:1042D000D04066E472E0CE018E559F4F0E94501888
:1042E00063E070E0CE018E559F4F0E94771A4AE03E
:1042F000BE016F577F4FC8010E94C22FBE016F578A
:104300007F4FCE018E559F4F0E945018CC55DF4FE6
:1043100008811981C45AD04001501109CE55DF4F90
:1043200028813981C25AD04050E040E064E189EBF5
:1043300096E00E94F71EC955DF4F0FB6F894DEBF16
:104340000FBECDBFDF91CF911F910F91FF90EF90E6
:10435000DF90CF90BF90AF909F908F9008951F9265
:104360000F920FB60F9211242F933F934F935F93A9
:104370006F937F938F939F93AF93BF93EF93FF932D
:104380008EE694E00E942702FF91EF91BF91AF91DA
:104390009F918F917F916F915F914F913F912F915D
:1043A0000F900FBE0F901F9018951F920F920FB68F
:1043B0000F9211242F938F939F93EF93FF93E0918C
:1043C0007E04F0917F048081E0918404F091850463
:1043D00082FD1BC09081809187048F5F8F73209135
:1043E0008804821741F0E0918704F0E0E259FB4F26
:1043F000958F80938704FF91EF919F918F912F91DB
:104400000F900FBE0F901F9018958081F4CF1F92D0
:104410000F920FB60F9211242F933F938F939F9378
:10442000AF93BF938091CF039091D003A091D1031C
:10443000B091D2033091CE0323E0230F2D3758F5EE
:104440000196A11DB11D2093CE038093CF039093BD
:10445000D003A093D103B093D2038091D303909162
:10446000D403A091D503B091D6030196A11DB11D2F
:104470008093D3039093D403A093D503B093D60332
:10448000BF91AF919F918F913F912F910F900FBE50
:104490000F901F90189526E8230F0296A11DB11DBD
:1044A000D2CF1F920F920FB60F9211242F933F93EA
:1044B0004F935F936F937F938F939F93AF93BF932C
:1044C000EF93FF938091B900887F803609F44AC04A
:1044D000F0F5883209F4A7C018F5803109F49BC0C3
:1044E000B8F4882309F4F9C0883009F494C0FF9126
:1044F000EF91BF91AF919F918F917F916F915F915C
:104500004F913F912F910F900FBE0F901F901895D4
:10451000883109F488C0803251F78093A40314C015
:10452000803409F49DC040F48033B9F38833F9F640
:104530008093A40385ECB0C0803509F485C088352C
:1045400009F496C0883499F60E94A018D0CF883913
:1045500009F48CC038F5883729F050F4883611F00A
:10456000803729F683E08093A60310927F0357C01B
:10457000883809F47BC0803919F0803809F0B7CF4A
:1045800080917F03803208F071C0E0917F0381E069
:104590008E0F80937F038091BB00F0E0E15AFC4FC7
:1045A00080833DC0803B39F0E0F4803A09F479C063
:1045B000883A09F09CCF84E08093A60310925E03B2
:1045C00010925D03E0914704F091480409958091B1
:1045D0005D0381110FC081E080935D0310923D0364
:1045E00009C0803C09F4A6CF883C09F4A3CF883BDE
:1045F00009F07DCFE0915E0381E08E0F80935E0332
:10460000F0E0E35CFC4F80818093BB0090915E03FF
:1046100080915D0329C0809181038093BB0085EC6C
:104620008093BC0064CF9091A3038091A20398175C
:1046300058F5E091A30381E08E0F8093A303F0E08F
:10464000EE57FC4F8081E9CFE091A30381E08E0F0C
:104650008093A3038091BB00F0E0EE57FC4F808372
:104660009091A3038091A2039817C8F285E8D8CF50
:10467000E091A30381E08E0F8093A3038091BB00A0
:10468000F0E0EE57FC4F80838091A50381115CCF51
:1046900081E08093800384EA8093BC001092A6039B
:1046A00026CF85EC8093BC001092A60380917F03F7
:1046B000803230F4E0917F03F0E0E15AFC4F108249
:1046C00060917F0370E0E0914504F09146048FE52E
:1046D00093E0099510927F030ACF1092A40334CF80
:1046E000DC01ED91FC911197309761F012962D91BC
:1046F0003C911397E217F30728F401900020E9F7A3
:10470000ED93FC930895FC0180819181009739F02D
:10471000228133818217930710F40C944C2F90E080
:1047200080E00895AF92BF92CF92DF92EF92FF9216
:104730000F931F93CF93DF93CDB7DEB7CF5BD10934
:104740000FB6F894DEBF0FBECDBF5C01CE01865818
:104750009F4FC654DF4F99838883CA5BD040C454AF
:10476000DF4F19821882CC5BD04080E490E0C254C5
:10477000DF4F99838883CE5BD04064E372E0CE0143
:1047800086549F4F0E94501869E372E0CE01865410
:104790009F4F0E94501849E750E06AE671E0CE0151
:1047A00001960E94912FC454DF4FC880D980CC5B02
:1047B000D040C654DF4FE880F980CA5BD04009E79B
:1047C00010E09E012F5F3F4F50E040E061E1C501E6
:1047D0000E94F71EC154DF4F0FB6F894DEBF0FBE24
:1047E000CDBFDF91CF911F910F91FF90EF90DF90A0
:1047F000CF90BF90AF900895EEE6F4E0138212825E
:1048000048EE53E060E070E044835583668377832D
:1048100089E691E09183808385EC90E09587848799
:1048200084EC90E09787868780EC90E0918B808B7A
:1048300081EC90E0938B828B82EC90E0958B848B63
:1048400086EC90E0978B868B118E128E138E148ED1
:10485000EBE0F5E087EC91E0918380831282138294
:1048600014821582E1E1F5E0918380831282138244
:1048700014821582E7E1F5E091838083128213822E
:1048800014821582EDE1F5E0918380831282138218
:1048900014821582E3E2F5E0918380831282138211
:1048A00014821582E9E2F5E0138212824483558373
:1048B000668377832BE731E031832083E5E3F5E0FE
:1048C000918380831282138214821582EBE3F5E0D8
:1048D000918380831282138214821582E1E4F5E0D1
:1048E000918380831282138214821582E7E4F5E0BB
:1048F000918380831282138214821582EDE4F5E0A5
:10490000918380831282138214821582E9E5F5E097
:10491000918380831282138214821582E3E5F5E08D
:10492000918380831282138214821582EFE5F5E071
:10493000918380831282138214821582E5E6F5E06A
:10494000918380831282138214821582E4EFF6E051
:10495000918380831282138214821582E5EEF6E041
:104960001382128229E931E03183208324E02487F5
:1049700028EE33E036872587A8EDB6E013969C93A2
:104980008E93129714961D921D921D921C9217974A
:1049900019961C921E9218971B961C921E921A979B
:1049A0001C961C921C971196FC93EE9340E757E1DE
:1049B00060E070E04483558366837783E9EBF6E03B
:1049C000B183A08313821282158214821682178209
:1049D000108611861286138614861586168617860B
:1049E000108A118A138A128A158A148A168A108EDE
:1049F000178A8FEF9FEF9093B8068093B706EBE688
:104A0000F5E0138212828DE891E09183808387E242
:104A1000848380E1818782E0828713860895CF9323
:104A2000DF93CDB7DEB7E3970FB6F894DEBF0FBEC6
:104A3000CDBF789484B5826084BD84B5816084BD27
:104A400085B5826085BD85B5816085BD80916E002C
:104A5000816080936E00109281008091810082605D
:104A6000809381008091810081608093810080919A
:104A700080008160809380008091B1008460809389
:104A8000B1008091B00081608093B00080917A0085
:104A9000846080937A0080917A00826080937A00AB
:104AA00080917A00816080937A0080917A0080689A
:104AB00080937A001092C100E0917E04F0917F040F
:104AC00082E08083E0917A04F0917B041082E0918F
:104AD0007C04F0917D048FEC808310928604E09139
:104AE0008204F091830486E08083E0918004F09159
:104AF0008104808180618083E0918004F091810451
:104B0000808188608083E0918004F09181048081BD
:104B100080688083E0918004F091810480818F7DA2
:104B200080838091D703811105C00E941C0981E018
:104B30008093D7030E949D0460E08AE00E940D03E9
:104B400080EE0E94AB0683E290E00197F1F781E1ED
:104B50000E94AB0682E00E94AB068EE00E94AB068C
:104B600009E412E0D8018D918D010E94AB06B2E0FC
:104B700007351B07B9F788E00E94AB0608E512E08D
:104B8000E0E6EE2EE2E0FE2EF80181918F010E9418
:104B9000AB06E016F106C1F78EEE0E94AB060E944E
:104BA0009D041AA21982AE014F5F5F4FBE016E5D78
:104BB0007F4F81E10E94CD06892B11F48FEF8AA3EC
:104BC00061E08AE00E940D038AA18F3F09F440C092
:104BD0001AE0DD24D39473E2E72EF12C0FEF68E89E
:104BE00073E180E090E00E940E048091D703811170
:104BF00004C00E941C09D092D7030E949D0460E06B
:104C00008AE00E940D0380EE0E94AB06C701019767
:104C1000F1F780E20E94AB0680E00E94AB068EEEC8
:104C20000E94AB060E949D040AA31982AE014F5F49
:104C30005F4FBE016E5D7F4F80E20E94CD0661E056
:104C40008AE00E940D038AA18D7F11F4115039F67C
:104C50008EEF8093D2069DEE9093D3062AEB20939D
:104C6000D4068093D5068093D6069093D70620E08D
:104C700031E0D9010D900020E9F79D01215031402C
:104C8000A0E0B1E0E1E0F0E0AD014050514042175A
:104C9000530784F4AF014F5F5F4F6D91E754F94FB5
:104CA000818D8627818F4630510514F041E050E018
:104CB000FA01EACF80913D0481112AC010922504A7
:104CC0001092240488EE93E0A0E0B0E080932604E4
:104CD00090932704A0932804B09329048FE391E0D4
:104CE000909323048093220487EC91E09093310405
:104CF00080933004109232041092330410923404E2
:104D00001092350484E080933A0481E080933D045E
:104D10008FED93E09093DE038093DD038091DC03BD
:104D2000811179C060E372E080E090E00E940E049F
:104D30000E94E608E5E3F2E0E491F0E0EE0FFF1FE9
:104D4000EF5DFD4F859194919093DA038093D903A1
:104D5000E7E1F2E0E491E093D80361E08AE00E94A9
:104D60003B030E948F0680E591E00E948D0184E361
:104D700080936D0480E80E94DC070E94E90C882380
:104D800009F4F8C188E00E94DC070E94D60C883044
:104D900009F0F0C180E10E94DC070E94D60C80314E
:104DA00009F0E8C180E00E94DC070E94D60C182FB1
:104DB0008111E0C141E050E0BE016F5F7F4F8FE1A4
:104DC00090E00E94610B8981833009F0D3C180E4B7
:104DD0008093DB0342E06EE170E0812F0E9438088F
:104DE00042E06FE170E0812F0E9438081F5F1430AD
:104DF00089F740E06EE170E0812F0E94380840E0C2
:104E00006FE170E0812F0E9438081F5F183089F72A
:104E100081E08093DC0380E591E00E948D0146E013
:104E200050E062ED76E089E090E00E942C0787EC8C
:104E300091E09A8389831B821C821D821E8244E03A
:104E400050E0BE016D5F7F4F8FE090E00E942C0725
:104E50000091DD031091DE03F80112A213A214A247
:104E600015A216A217A210A611A612A613A614A682
:104E700015A680E69AEEA0E0B0E086AB97ABA0AFB7
:104E8000B1AF80EA9FE0A0E0B0E082AF93AFA4AF03
:104E9000B5AFD801189686E0FD01282F11922A950A
:104EA000E9F79801225F3F4F94E1F90111929A9539
:104EB000E9F7E2EDF6E001900D928A95E1F72C5CBE
:104EC0003F4F39AB28ABD9011C920E94F42E2FEC36
:104ED00037E040E050E00E944233DC01CB01019614
:104EE000A11DB11DF80184839583A683B7838083B8
:104EF0009183A283B3835801F3E4AF0EB11CC501C3
:104F00000E94310C64E470E0C5010E949A0F88236E
:104F100009F499C10E9441042B013C0148EEC42EC2
:104F200043E0D42EE12CF12C52E0252E912C812C43
:104F3000A8A9B9A98C918330B9F181118EC1F8016A
:104F400084819581A681B7810196A11DB11D8483BD
:104F50009583A683B7830E94410464197509860965
:104F60009709A70196010E94AB33A90161E0C8012E
:104F70000E94421781E0A8A9B9A98C93F1E08F168D
:104F80009104B1F20E9441046419750986099709D8
:104F9000D801D6962D913D914D915C91D9972617C8
:104FA00037074807590710F6C5010E94310CF80170
:104FB00084819581A681B7810196A11DB11D84834D
:104FC0009583A683B7830E944104F801FE9660830F
:104FD0007183828393838A94892809F034C180E5A0
:104FE00091E00E948D010091DD031091DE03B80174
:104FF000625F7F4FCE0101960E943F1344E050E074
:10500000BE016D5F7F4F8FE090E00E942C07B801DA
:105010006A5E7F4FCE0101960E943F1344E050E04C
:10502000BE016D5F7F4F81E090E00E942C07B801C8
:105030006E5E7F4FCE0101960E943F1344E050E028
:10504000BE016D5F7F4F85E090E00E942C07B801A4
:10505000625E7F4FCE0101960E943F138B819C813F
:10506000AD81BE818093550590935605A093570559
:10507000B09358050E94E9037F73809121019091BC
:10508000220168277927709322016093210168EE3D
:1050900073E080E090E00E940E0487EC91E09A8338
:1050A00089831B821C821D821E8280E591E00E9402
:1050B0008D0144E050E0BE016D5F7F4F8FE090E0D6
:1050C0000E94610B80E091E09093BC068093BB0648
:1050D0000E944104DC01CB0188589341A109B10928
:1050E0008093C3069093C406A093C506B093C606EA
:1050F0008093BF069093C006A093C106B093C206EA
:105100008093C7069093C806A093C906B093CA06B9
:10511000E091B906F091BA0681E692E09187808726
:1051200080E590E0938782878091B9069091BA06D6
:105130000E9498091092D1061092D0060E94410454
:105140006B017C018091D0069091D106019709F402
:105150004FC10E9441046C197D098E099F09603579
:1051600076448105910508F043C189EB96E00E94E1
:105170009C1AE8CF87E380936D0480E80E94DC07E7
:105180000E94E90C882329F188E00E94DC070E9434
:10519000D60C8830F1F480E10E94DC070E94D60C26
:1051A000182F8031B1F480E00E94DC070E94D60CF9
:1051B00081110FC041E050E0BE016F5F7F4F89E376
:1051C00090E00E94610B8981843019F41093DB0315
:1051D0001FCE83E380936D0480E80E94DC070E9469
:1051E000E90C882371F180E10E94DC070E94D60C53
:1051F000803139F582E10E94DC070E94D60C8231B1
:1052000001F580E00E94DC070E94D60C811119C0D4
:1052100084E08093DB0315E51FA741E050E0BE0169
:10522000615D7F4F8BE190E00E942C071EA741E05B
:1052300050E0BE01625D7F4F8AE190E00E942C0742
:10524000E7CD10926D0460E177E280E090E00E948B
:105250000E04F0E0E0E00995FFCF8430F9F4F801A6
:1052600084819581A681B7810196A11DB11D84839A
:105270009583A683B7830E94410464197509860942
:105280009709A70196010E94AB33A90163E0C80109
:105290000E944217A8A9B9A92C9270CE813059F565
:1052A000F80142AD53AD64AD75AD9E012F5F3F4F28
:1052B000C8010E94D818382EF2E08F1392C089815D
:1052C0009A81AB81BC81F80184839583A683B783DF
:1052D0000E9441046419750986099709A70196017E
:1052E0000E94AB33A90163E0C8010E944217A8A93C
:1052F000B9A93C9243CE823009F040CEF80142ADCC
:1053000053AD64AD75AD9E012F5F3F4FC8010E9444
:10531000D818382EF5E08F135DC0E3E0A8A9B9A92D
:10532000EC93F80182A193A1A4A1B5A1892B8A2BAA
:105330008B2B41F484E893E0A0E0B0E082A393A338
:10534000A4A3B5A3F80186A197A1A0A5B1A5892B17
:105350008A2B8B2B61F482A193A1A4A1B5A1B69550
:10536000A7959795879586A397A3A0A7B1A7F801BE
:1053700082A593A5A4A5B5A5892B8A2B8B2BA9F46F
:1053800082A193A1A4A1B5A1AC01BD0123E07695B2
:105390006795579547952A95D1F7841B950BA60BD2
:1053A000B70B82A793A7A4A7B5A7F80186A197A1D9
:1053B000A0A5B1A586A797A7A0ABB1AB82A593A5E1
:1053C000A4A5B5A582AB93ABA4ABB5AB882483945D
:1053D000912CD4CDF6E08F1304C0A8A9B9A91C92D2
:1053E000CDCDBFEF3B12CACDE8A9F9A91082C6CD39
:1053F0008091D0069091D106019709F095CE109238
:105400004C0410924B0410924A04109249040E94DA
:10541000CA0486EA91E0909348048093470487EA9F
:1054200091E090934604809345041092700580911A
:105430007505823018F098E090937005809373059D
:1054400062E370E080E090E00E940E0460917605D7
:105450008BE695E00E948E0568EE73E080E090E0B8
:105460000E940E0460E38BE695E00E94700A0BE454
:1054700016E4C8010197F1F760E38BE695E00E941E
:10548000700AC8010197F1F760E38BE695E00E948E
:10549000700A83E592E00197F1F760E28BE695E010
:1054A0000E94700A60917005606240E08BE695E0B2
:1054B0000E94890A84E08093710540E06CE08BE6ED
:1054C00095E00E94890A40E061E08BE695E00E9449
:1054D000890A0BE31FE1C8010197F1F742E0F42EBE
:1054E000F092720540E066E08BE695E00E94890A42
:1054F00040E062E08BE695E00E94890AC8010197CE
:10550000F1F788E08093760560E08BE695E00E94F5
:105510008E0540E061E08BE695E00E94890AC801B3
:105520000197F1F740E062E08BE695E00E94890A7E
:10553000C8010197F1F760E080E00E94A00A8DE6C3
:1055400092E00E94190A61E080E00E94A00A80E7D0
:1055500092E00E94190A61E084E00E943B0361E04E
:1055600085E00E943B0360E084E00E940D0360E060
:1055700085E00E940D0361E083E00E943B03E0911F
:105580007E04F0917F04F082E0917A04F0917B0434
:105590001082E0917C04F0917D0487E68083109274
:1055A0008604E0918204F091830486E08083E09198
:1055B0008004F0918104808180618083E091800487
:1055C000F0918104808188608083E0918004F09173
:1055D0008104808180688083E0918004F09181045F
:1055E00080818F7D80838FEF90E00E9496028FEF05
:1055F00090E00E9496028FEF90E00E9496028091C8
:10560000B7069091B80697FF18C00E944104E7E7DB
:10561000F5E047EB56E024E1DF01322F1D923A9589
:10562000E9F7608371838283938374964E175F07D3
:1056300099F71092B8061092B7068091B70690912C
:10564000B806409774F4E7E7F5E090E080E0248145
:105650003581232B09F40BC2019674968031910594
:10566000B1F7CC24C394D12C90E0292E90E0392EB0
:1056700089EB96E00E949C1A0E94410468AB79ABCA
:105680008AAB9BAB37E7E32E35E0F32E8701D801D9
:1056900053961C921E92529714968D919C91159739
:1056A000892BA1F14D905D906D907C90139768A926
:1056B00079A98AA99BA96419750986099709199678
:1056C0008D909D90AD90BC901C97681579058A05CA
:1056D0009B05E0F0A50194010E94AB33C501B40124
:1056E0000E945334460E571E681E791EF8014082F0
:1056F0005182628273828189882341F025853685B3
:105700002115310509F072C1D38AC28A0C5E1F4F80
:1057100027EB36E02017310709F0B9CFD7015296B1
:105720008D919C915397892B99F11496ED91FC9151
:10573000159718968C911897882309F46EC11696C0
:105740008D919C910995F70182899389029701F5C2
:105750008091B7069091B806892BD1F0848195810C
:10576000892BB1F0D701E4E11D92EA95E9F70E9497
:105770004104D7016D937D938D939C9313978091F2
:10578000B7069091B80601979093B8068093B70634
:10579000B4E1EB0EF11C0E151F0509F0BFCF19A6E1
:1057A00018A61BA61AA61DA61CA670E060E0CE01D6
:1057B00088960E94781828A539A5811130C1211535
:1057C000310519F0C9010E941F2E19A618A61DA6A1
:1057D0001CA61BA61AA60E9436091BA21AA21DA26D
:1057E0001CA21FA21EA28E010F5F1F4F22E044E0E9
:1057F0000E94652D7C01009709F420C1FC010190F5
:105800000020E9F731978F01081B190BB801CE0171
:1058100082960E9478182AA13BA1811108C1211506
:10582000310519F0C9010E941F2E1BA21AA21FA246
:105830001EA21DA21CA288A599A5009709F406C165
:105840006AA17BA16115710509F4FEC04AA55BA59B
:105850002EA13FA14217530708F4F6C00E9453350A
:105860008EA19FA19DA78CA71FA21EA28AA19BA16A
:10587000009711F00E941F2E60E082E00E94A00AB3
:105880004CA55DA568A579A58BE695E00E94A901C8
:105890000E9462098C019093500480934F0461E050
:1058A00082E00E94A00AA80170E060E02AE08BE696
:1058B00095E00E94C0098FE00E94D40396958795D9
:1058C000969587956FEF70E0681B790B83E00E94D7
:1058D000770364E670E080E090E00E940E040E948E
:1058E000360920E030E04CE052E40E944E341816B5
:1058F00004F580914D048823E1F010924D0460E09E
:1059000085E00E940D0360E087E00E94A00A8BEF13
:1059100091E00E94190A84E792E00E9424208CE919
:1059200092E00E94242070E060E082E090E00E941B
:10593000892080914F0490915004803D9740F8F465
:1059400080914E0481111BC00E945A0981E080930E
:105950004E0461E087E00E94A00A8DED91E00E9474
:10596000190A84EB92E00E94242084ED92E00E94C8
:10597000242061E070E084E090E00E948920809122
:105980004F0490915004883B9B40F1F480914E0469
:105990008823D1F00E94520910924E0461E087E002
:1059A0000E94A00A87EE91E00E94190A8BEE92E015
:1059B0000E94242081E093E00E94242070E060E0B7
:1059C00084E090E00E94892088A599A5009711F0B5
:1059D0000E941F2E2114310409F44ACE0E941302A2
:1059E000882309F445CE0E94000042CED801878565
:1059F00090898217930708F089CED38AC28A0196CC
:105A0000908B87878217930708F480CEE2E0F0E05E
:105A10005396FC93EE93529779CE099594CE1DA69A
:105A20001CA663ED72E0C9010E945335D4CE1FA3BA
:105A30000EA3B701C9010E945335FDCE8AA19BA1D7
:105A4000009709F0F0CEF1CE0E941F2E8AA19BA1F3
:105A500099A788A78CA19DA19BA78AA78EA19FA18A
:105A60009DA78CA71BA21AA21DA21CA2FDCE24E1F9
:105A7000289F8001299F100D112409581A4F88EE84
:105A800093E0A0E0B0E0F80181879287A387B48714
:105A90008EEE90E295838483178216821086168696
:105AA000158681E0818B0E944104D8016D937D931E
:105AB0008D939C9313978091B7069091B8060196A9
:105AC0009093B8068093B706CCCDEF920F931F93B7
:105AD000CF93DF93E80134E047FD34E1042E000C5E
